:100000000AC1000023C1000021C100001FC100007F
:100010001DC100001BC1000019C1000017C1000074
:1000200015C1000013C100008BC500000FC1000006
:100030000DC100000BC1000009C1000007C1000094
:1000400005C1000003C1000001C10000FFC00000A5
:10005000FDC00000FBC00000F9C00000F7C00000B8
:10006000F5C00000F3C00000F1C00000EFC00000C8
:10007000EDC00000EBC00000E9C00000E7C00000D8
:10008000E5C00000E3C00000E1C00000DFC00000E8
:10009000DDC00000DBC00000D9C00000D7C00000F8
:1000A000D5C00000D3C00000D1C000000501090583
:1000B000A10115002501350045017501950D0509C2
:1000C0001901290D81029503810105012507463B90
:1000D0000175049501651409398142650095018116
:1000E0000126FF0046FF0009300931093209357544
:1000F00008950481020600FF09200921092209232D
:10010000092409250926092709280929092A092B6B
:10011000950C81020A21269508B102C01201100136
:1001200000000040C410C082000101020001090269
:1001300022000101008032090400000103000000D8
:10014000092111010001227000070581034000010F
:10015000040309041A03630072007400670061005D
:100160006D006500720073002E0063006C000000DB
:10017000A4034300520054002000470041004D00FA
:1001800045005200530020002D00200030002000C8
:10019000440065006C0061007900200055005300A8
:1001A000420020004A006F0079007300740069006B
:1001B00063006B002000500072006F006600650055
:1001C0007300730069006F006E0061006C00200016
:1001D00050006C0075007300200050006C0075002A
:1001E0007300200032003000300032002000550043
:1001F0004D0020004300680061006D007000690040
:100200006F006E0020004500640069007400690002
:100210006F006E00000011241FBECFEFDAE0DEBFDA
:10022000CDBF11E0A0E0B1E0ECEDFFE002C0059031
:100230000D92A831B107D9F711E0A8E1B1E001C0F2
:100240001D92AC33B107E1F733D0C6C6D9CE87983B
:100250008F9A86988E9A85988D9A84988C9A819890
:10026000899A8098889A23982B9A2198299A569847
:100270005E9A27982F9A26982E9A25982D9A249838
:100280002C9A6E98769A57985F9A3E98469A549808
:100290005C9A5098589A5198599A52985A9A5398E9
:1002A0005B9A2098289A22982A9A3F98479A08950C
:1002B0004F925F926F927F928F929F92AF92BF9276
:1002C000CF92DF92EF92FF920F931F93CF93DF9322
:1002D00080E8809361001092610085B7806885BFD7
:1002E00085B7806885BFB3DF81E0B0D1C1E0D0E0E1
:1002F0004FE7842E0FEF10E06624639491D1B9B1DB
:1003000079B0F9B0E6B1B9B04CB1F3B123B1A3B053
:1003100093B079B1769576957C27717069B16695C1
:10032000669566956C2761705FB1AFB1D3B0C3B00D
:100330007C9902C0EE2407C07D9903C0EE24EA94A4
:1003400002C03FE7E32E2295269527702C272170C7
:1003500030911C01397F822F90E02C01409EC0011A
:10036000419E900D509E900D112480932901842F61
:1003700082958695869583708C278170482F440FCF
:10038000440F220F322B342B90E02C01409EC001F1
:10039000419E900D509E900D1124809328012F2F87
:1003A00022952F702C272170367F822F90E02C0110
:1003B000409EC001419E900D509E900D112480934F
:1003C0002A018B2D8095881F8827881F482F440F6E
:1003D000440F440F322B342B90E02C01409EC0017F
:1003E000419E900D509E900D1124809327012D2D3C
:1003F00026952C2721703F7C822F90E02C01409E77
:10040000C001419E900D509E900D112480932B01B0
:100410008C2D8695869586958C278170482F4295E0
:10042000440F407E2295207F322B342B90E06C01CC
:10043000C09EC001C19E900DD09E900D112480934E
:100440002C012A2D22952695269523702C27217084
:100450003F73822F90E02C01409EC001419E900D81
:10046000509E900D112480932D01892D869586959F
:100470008C278170482F4795442747952295220F56
:10048000220F207C322B342B30931C0190E06C0126
:10049000C09EC001C19E900DD09E900D11248093EE
:1004A0002E01E295E695E695E370F0E0EC27FD2756
:1004B000E170F070872D90E08C279D2781709070FF
:1004C000880F991F880F991FE82BF92BB6958B2F52
:1004D00090E08C279D278170907043E0880F991FD2
:1004E0004A95E1F7E82BF92BF2943FE0F3228F2DA8
:1004F00090E08C279D2781709070880F991FE82BC2
:10050000F92BE050FF4F808180931E01972F990FA8
:1005100080911D018C7F892B862B80931D01772371
:1005200019F480E090E006C090E0662309F491E0C1
:100530009625892F982F91709295907F80911D011B
:100540008B7E52955695569553705C275170550F7A
:10055000550F892B852BA095AA1FAA27AA1FAA0F82
:10056000AA0FAA0F877F8A2B80931D0180921F01FB
:100570008092200180922101E092220199D0BECE8A
:10058000DA019330B1F0943028F4913041F0923098
:1005900079F50AC0913211F1923251F524C0ECE1A3
:1005A000F1E022E130E028C0EEE2F1E022E230E0CA
:1005B00023C0813049F0813018F08230C9F40AC07C
:1005C000E0E5F1E0849103C0E4E5F1E08491282FB7
:1005D00030E012C0E0E7F1E08491F9CFE0E4F1E02F
:1005E00029E030E009C0ECEAF0E020E730E004C0A8
:1005F000E0E0F0E020E030E0ED93FC93C9010895E5
:10060000E0911801F0911901309709F009950895CA
:10061000E0911A01F0911B01309709F009950895B6
:10062000A895089583E1ECE1F1E0DF011D928A9540
:10063000E9F788E080931E0180E880931F01809392
:10064000200180932101809322010895882361F085
:100650002FE088E190E00FB6F894A89580936000B1
:100660000FBE2093600008C088E10FB6F894809315
:100670006000109260000FBED5DF45D278940895D7
:1006800080913301843099F481E08093E900809176
:10069000E80080FF0CC08CE191E063E170E040E095
:1006A00050E010D18091E8008E778093E8000895A3
:1006B000E7DF7DC480913501813051F580913401AF
:1006C000813A31F580913601909137018050934005
:1006D00081F48091E800877F8093E80080E191E0D9
:1006E00068E070E01AD08091E8008B778093E80092
:1006F00008958091E800877F8093E8008CE191E085
:1007000063E170E00AD08091E8008B778093E80085
:10071000089581E061EC42E327C19C0140913A01D8
:1007200050913B014617570718F4F90190E043C078
:100730006115710511F0AB01F8CF8091E8008E775B
:100740008093E80040E050E0F0CF809133018823AF
:1007500009F447C0853009F446C08091E80083FD64
:1007600044C08091E80082FD36C08091E80080FF9F
:1007700022C08091F3009091F200782F60E0292F41
:1007800030E0262B372B07C081918093F100415038
:1007900050402F5F3F4F4115510519F0203431056E
:1007A00098F390E02034310509F491E08091E8005D
:1007B0008E778093E8004115510539F6992329F683
:1007C0000AC080913301882361F0853061F0809107
:1007D000E80083FD0AC08091E80082FFF2CF80E04C
:1007E000089582E0089583E0089581E008959C01D2
:1007F00040913A0150913B014617570718F4F9010F
:1008000090E044C06115710511F0AB01F8CF809103
:10081000E8008E778093E80040E050E0F0CF8091D0
:100820003301882309F448C0853009F447C080911A
:10083000E80083FD45C08091E80082FD37C08091CB
:10084000E80080FF23C08091F3009091F200782FA0
:1008500060E0292F30E0262B372B08C0849180934D
:10086000F1003196415050402F5F3F4F41155105E7
:1008700019F02034310590F390E02034310509F46B
:1008800091E08091E8008E778093E8004115510552
:1008900031F6992321F60AC080913301882361F053
:1008A000853061F08091E80083FD0AC08091E80006
:1008B00082FFF2CF80E0089582E0089583E00895FA
:1008C00081E00895BF92CF92DF92EF92FF920F9353
:1008D0001F93CF93DF93182F092F7B016A019DD0BF
:1008E000B82E8823B1F5812F902F9C01E901C11406
:1008F000D10439F0F60180819181E81AF90AC80F14
:10090000D91F00E010E022C08091E80085FD16C0EC
:100910008091E8008E778093E80049D3C114D10418
:1009200049F0F60180819181800F911F918380832E
:1009300085E010C072D0882349F00CC08991809363
:10094000F1000894E108F1080F5F1F4FE114F10472
:10095000D9F68B2DDF91CF911F910F91FF90EF90E2
:10096000DF90CF90BF900895382F282F2EC0822F70
:100970008F708093E900231721F4762F942F50E095
:1009800006C07091EC009091ED005091F00091FF45
:100990001BC08091EB008E7F8093EB008091ED0077
:1009A0008D7F8093ED008091EB0081608093EB0060
:1009B0007093EC009093ED005093F0008091EE0066
:1009C00087FD02C080E008952F5F273080F23F70DE
:1009D0003093E90081E008958091340188239CF4EC
:1009E00004C0809133018823B9F08091E80082FF30
:1009F000F8CF8091E8008B778093E800089580918C
:100A00003301882349F08091E80080FFF8CF80917E
:100A1000E8008E778093E80008954091E4005091BB
:100A2000E50024E68091EC0080FF24C08091E8007E
:100A300080FD1EC080913301882311F482E0089567
:100A4000853011F483E008958091EB0085FF02C0AA
:100A500081E008958091E4009091E5008417950766
:100A600009F3222311F484E008952150AC01DACF78
:100A700080E008958091E80082FFDCCFF9CFEF920B
:100A8000FF920F931F934FD056D008ED10E0F8015E
:100A900080818F77808380818068808380818F7D53
:100AA000808319BC1092330110922F0110923101F2
:100AB0001092300180EEE82EF12CF70180818B7FBF
:100AC0008083F80180818160808380E060E042E380
:100AD0004BDFE1EEF0E080818E7F8083E2EEF0E09C
:100AE000808181608083808188608083F70180813C
:100AF0008E7F8083F8018081806180831F910F91B8
:100B0000FF90EF900895E8EDF0E080818F7E808384
:100B1000E7EDF0E080818160808384E082BF81E046
:100B200080933201ACCFE8EDF0E080818E7F80834E
:100B30001092E20008951092DA001092E1000895F8
:100B40001F920F920FB60F9211242F933F934F9342
:100B50005F936F937F938F939F93AF93BF93EF9325
:100B6000FF938091E10082FF0AC08091E20082FF42
:100B700006C08091E1008B7F8093E10017D28091C5
:100B8000DA0080FF1DC08091D80080FF19C08091DD
:100B9000DA008E7F8093DA008091D90080FF0CC04C
:100BA00080E189BD82E189BD09B400FEFDCF81E00D
:100BB0008093330125DD04C019BC1092330128DD78
:100BC0008091E10080FF18C08091E20080FF14C096
:100BD0008091E2008E7F8093E2008091E20080614C
:100BE0008093E2008091D80080628093D80019BC85
:100BF00085E080933301DAD18091E10084FF2FC03A
:100C00008091E20084FF2BC080E189BD82E189BD33
:100C100009B400FEFDCF8091D8008F7D8093D8006D
:100C20008091E1008F7E8093E1008091E2008F7ED1
:100C30008093E2008091E20081608093E2008091E5
:100C40002F01882311F084E007C08091E30087FD25
:100C500002C081E001C083E080933301A7D180917D
:100C6000E10083FF22C08091E20083FF1EC08091DB
:100C7000E100877F8093E10082E08093330110924E
:100C80002F018091E1008E7F8093E1008091E2004E
:100C90008E7F8093E2008091E20080618093E20089
:100CA00080E060E042E360DE81D1FF91EF91BF918F
:100CB000AF919F918F917F916F915F914F913F91F4
:100CC0002F910F900FBE0F901F9018951F93DF93D9
:100CD000CF93CDB7DEB7AC970FB6F894DEBF0FBE9B
:100CE000CDBFE4E3F1E08091F100819321E0EC33AA
:100CF000F207C9F7DFDC8091E80083FF3FC18091F4
:100D0000340130913501353009F48DC0363040F46E
:100D10003130E1F1313070F0333009F02FC136C09D
:100D2000383009F4FDC0393009F40CC1363009F00F
:100D300025C19CC0803821F0823809F01FC108C04D
:100D400090913001809131018823B1F0926014C0FC
:100D5000809138018F70873008F010C18093E900CE
:100D60008091EB0090E025E0969587952A95E1F734
:100D7000982F91701092E9008091E800877F80930E
:100D8000E8009093F1001092F100D5C0882319F08B
:100D9000823009F0F3C090E08F719070009721F0DD
:100DA000029709F0EBC00CC080913601813009F048
:100DB000E5C010923101333081F5809331012DC0AF
:100DC00080913601882349F5209138012F70822FB8
:100DD0008150863008F0D2C02093E9008091EB006A
:100DE00080FF1BC0333021F48091EB00806213C080
:100DF0008091EB0080618093EB0081E090E002C085
:100E0000880F991F2A95E2F78093EA001092EA0072
:100E10008091EB0088608093EB001092E900809154
:100E2000E800877F8BC0882309F0A8C010913601A5
:100E30001F778091E3008078812B8093E30080917D
:100E4000E800877F8093E800C7DD8091E80080FF9D
:100E5000FCCF8091E30080688093E300112311F4BC
:100E600082E001C083E08093330188C080588230E3
:100E700008F084C0809136019091370123E08C3DC9
:100E8000920709F033C083E08C838AE28B837FB7BB
:100E9000F894DE0115966EE040E050E011E2E62F96
:100EA000F0E010935700849140FF03C082958F704B
:100EB0006F5F8F70282F30E08A3018F0C901C79615
:100EC00002C0C901C0968D939D934F5F5F4F44311F
:100ED000510529F77FBF8091E800877F8093E80064
:100EE000CE0103966AE270E018DC14C0609138010C
:100EF00070913901AE014F5F5F4F42DBBC0100973B
:100F000009F43CC08091E800877F8093E8008981E4
:100F10009A816DDC8091E8008B778093E8002EC089
:100F2000803861F58091E800877F8093E8008091A8
:100F30002F018093F1008091E8008E778093E80084
:100F40004BDD1CC08823D1F4909136019230B0F46F
:100F50008091E800877F8093E80090932F013CDD2B
:100F600080912F01882331F48091E30087FD02C036
:100F700081E001C084E080933301CBDB8091E80005
:100F800083FF0AC08091E800877F8093E80080910A
:100F9000EB0080628093EB00AC960FB6F894DEBF56
:100FA0000FBECDBFCF91DF911F91089508951F937C
:100FB00080913301882371F01091E9008091EC0059
:100FC0001092E9008091E80083FF01C07FDE1F706E
:0C0FD0001093E9001F910895F894FFCFE2
:100FDC0008020608040305080001070808080808A9
:080FEC002126010700000000AE
:00000001FF
