:100000000AC1000023C1000021C100001FC100007F
:100010001DC100001BC1000019C1000017C1000074
:1000200015C1000013C1000075C500000FC100001C
:100030000DC100000BC1000009C1000007C1000094
:1000400005C1000003C1000001C10000FFC00000A5
:10005000FDC00000FBC00000F9C00000F7C00000B8
:10006000F5C00000F3C00000F1C00000EFC00000C8
:10007000EDC00000EBC00000E9C00000E7C00000D8
:10008000E5C00000E3C00000E1C00000DFC00000E8
:10009000DDC00000DBC00000D9C00000D7C00000F8
:1000A000D5C00000D3C00000D1C000000501090583
:1000B000A10115002501350045017501950D0509C2
:1000C0001901290D81029503810105012507463B90
:1000D0000175049501651409398142650095018116
:1000E0000126FF0046FF0009300931093209357544
:1000F00008950481020600FF09200921092209232D
:10010000092409250926092709280929092A092B6B
:10011000950C81020A21269508B102C01201100136
:10012000000000404C0568020001010200010902C4
:1001300022000101008032090400000103000000D8
:10014000092111010001227000070581034000010F
:10015000040309041A03630072007400670061005D
:100160006D006500720073002E0063006C000000DB
:10017000A4034300520054002000470041004D00FA
:1001800045005200530020002D00200030002000C8
:10019000440065006C0061007900200055005300A8
:1001A000420020004A006F0079007300740069006B
:1001B00063006B002000500072006F006600650055
:1001C0007300730069006F006E0061006C00200016
:1001D00050006C0075007300200050006C0075002A
:1001E0007300200032003000300032002000550043
:1001F0004D0020004300680061006D007000690040
:100200006F006E0020004500640069007400690002
:100210006F006E00000011241FBECFEFDAE0DEBFDA
:10022000CDBF11E0A0E0B1E0E0EBFFE002C005903F
:100230000D92A831B107D9F711E0A8E1B1E001C0F2
:100240001D92AC33B107E1F733D0B0C6D9CE879851
:100250008F9A86988E9A85988D9A84988C9A819890
:10026000899A8098889A23982B9A2198299A569847
:100270005E9A27982F9A26982E9A25982D9A249838
:100280002C9A6E98769A57985F9A3E98469A549808
:100290005C9A5098589A5198599A52985A9A5398E9
:1002A0005B9A2098289A22982A9A3F98479A08950C
:1002B0002F923F924F925F926F927F928F929F9276
:1002C000AF92BF92CF92DF92EF92FF920F931F9364
:1002D000DF93CF9300D0CDB7DEB780E88093610085
:1002E0001092610085B7806885BF85B7806885BF3B
:1002F000AEDF81E095D17ED139B059B0E9B0F9B027
:10030000A9B0B6B079B12CB1D3B053B14FB02FB0C2
:1003100073B003B1C3B063B16FB0529556955770C7
:10032000882483945825517040911C01497F852F62
:1003300090E0EFEFF0E08E9FD0018F9FB00D9E9F79
:10034000B00D1124A093290122952695269523709E
:1003500028252170822F880F880F550F452B482B99
:1003600030E02E9FC0012F9F900D3E9F900D1124D5
:1003700080932801D2943FE0D322D824D820467F0E
:100380008D2D90E04C018E9EC0018F9E900D9E9E03
:10039000900D112480932A017095771F7727771F7E
:1003A000872F880F880F880F4D29482BA72FB0E083
:1003B000AE9FC001AF9F900DBE9F900D1124809302
:1003C0002701C69499249394C924C9204F7C8C2D6D
:1003D00090E09C012E9FC0012F9F900D3E9F900D9D
:1003E000112480932B016695669566956925617049
:1003F000862F8295880F807EC29420EFC2224C29DE
:10040000482B70E06E9FC0016F9F900D7E9F900DF6
:10041000112480932C0176947694792479204F735B
:10042000872D90E0BC016E9FC0016F9F900D7E9F55
:10043000900D112480932D01029506950695037069
:1004400009250170802F8795882787957294770CEE
:10045000770C90EC79224729482B40931C0110E03F
:100460000E9FC0010F9F900D1E9F900D1124809331
:100470002E01B294B694B69413E0B122EB2DF0E0C5
:1004800081E090E0E827F927E170F0708F2C992443
:100490008826992691E089229924880C991C880C39
:1004A000991CE829F929E694FF24A1E0B0E0EA26A6
:1004B000FB26B1E0EB22FF24A3E0EE0CFF1CAA9583
:1004C000E1F7EE29FF29A2947FE0A722BB2461E097
:1004D000862E912CA824B92421E0A222BB24AA0CA8
:1004E000BB1CEA29FB29E050FF4F808180931E014D
:1004F00056945694582431E05322550C80911D0196
:100500008C7F36943694369433263322852983297A
:100510006294669447E0642263266322629420EF2B
:1005200062228B7E42944694469493E0492243266D
:100530004322440C440C862984292094221C222422
:10054000221C220C220C220C877F822980931D0101
:1005500099D0D1CEDA019330B1F0943028F49130B3
:1005600041F0923079F50AC0913211F1923251F591
:1005700024C0ECE1F1E022E130E028C0EEE2F1E05D
:1005800022E230E023C0813049F0813018F082301F
:10059000C9F40AC0E0E5F1E0849103C0E4E5F1E0CC
:1005A0008491282F30E012C0E0E7F1E08491F9CF88
:1005B000E0E4F1E029E030E009C0ECEAF0E020E717
:1005C00030E004C0E0E0F0E020E030E0ED93FC93A8
:1005D000C9010895E0911801F0911901309709F0CF
:1005E00009950895E0911A01F0911B01309709F0E7
:1005F00009950895A895089583E1ECE1F1E0DF0104
:100600001D928A95E9F788E080931E0180E8809327
:100610001F0180932001809321018093220108957E
:10062000882361F02FE088E190E00FB6F894A89558
:10063000809360000FBE2093600008C088E10FB671
:10064000F89480936000109260000FBED5DF45D211
:100650007894089580913301843099F481E08093F7
:10066000E9008091E80080FF0CC08CE191E063E13B
:1006700070E040E050E010D18091E8008E778093E8
:10068000E8000895E7DF7DC480913501813051F5A0
:1006900080913401813A31F5809136019091370192
:1006A0008050934081F48091E800877F8093E80038
:1006B00080E191E068E070E01AD08091E8008B77EB
:1006C0008093E80008958091E800877F8093E80098
:1006D0008CE191E063E170E00AD08091E8008B77D3
:1006E0008093E800089581E061EC42E327C19C011A
:1006F00040913A0150913B014617570718F4F90110
:1007000090E043C06115710511F0AB01F8CF809105
:10071000E8008E778093E80040E050E0F0CF8091D1
:100720003301882309F447C0853009F446C080911D
:10073000E80083FD44C08091E80082FD36C08091CE
:10074000E80080FF22C08091F3009091F200782FA2
:1007500060E0292F30E0262B372B07C08191809352
:10076000F100415050402F5F3F4F4115510519F0A6
:100770002034310598F390E02034310509F491E0FC
:100780008091E8008E778093E8004115510539F695
:10079000992329F60AC080913301882361F08530BE
:1007A00061F08091E80083FD0AC08091E80082FF3B
:1007B000F2CF80E0089582E0089583E0089581E01B
:1007C00008959C0140913A0150913B01461757070B
:1007D00018F4F90190E044C06115710511F0AB0106
:1007E000F8CF8091E8008E778093E80040E050E0F9
:1007F000F0CF80913301882309F448C0853009F493
:1008000047C08091E80083FD45C08091E80082FDEB
:1008100037C08091E80080FF23C08091F300909161
:10082000F200782F60E0292F30E0262B372B08C00C
:1008300084918093F1003196415050402F5F3F4F9B
:100840004115510519F02034310590F390E0203422
:10085000310509F491E08091E8008E778093E800FB
:100860004115510531F6992321F60AC080913301D3
:10087000882361F0853061F08091E80083FD0AC033
:100880008091E80082FFF2CF80E0089582E0089531
:1008900083E0089581E00895BF92CF92DF92EF92B6
:1008A000FF920F931F93CF93DF93182F092F7B0194
:1008B0006A019DD0B82E8823B1F5812F902F9C011D
:1008C000E901C114D10439F0F60180819181E81A5F
:1008D000F90AC80FD91F00E010E022C08091E8009B
:1008E00085FD16C08091E8008E778093E80049D39B
:1008F000C114D10449F0F60180819181800F911FCC
:100900009183808385E010C072D0882349F00CC0A9
:1009100089918093F1000894E108F1080F5F1F4F5F
:10092000E114F104D9F68B2DDF91CF911F910F9136
:10093000FF90EF90DF90CF90BF900895382F282F31
:100940002EC0822F8F708093E900231721F4762F19
:10095000942F50E006C07091EC009091ED00509102
:10096000F00091FF1BC08091EB008E7F8093EB0025
:100970008091ED008D7F8093ED008091EB00816090
:100980008093EB007093EC009093ED005093F00097
:100990008091EE0087FD02C080E008952F5F273030
:1009A00080F23F703093E90081E008958091340136
:1009B00088239CF404C0809133018823B9F080918E
:1009C000E80082FFF8CF8091E8008B778093E80001
:1009D000089580913301882349F08091E80080FFD9
:1009E000F8CF8091E8008E778093E80008954091D9
:1009F000E4005091E50024E68091EC0080FF24C0E3
:100A00008091E80080FD1EC080913301882311F49D
:100A100082E00895853011F483E008958091EB0021
:100A200085FF02C081E008958091E4009091E50087
:100A30008417950709F3222311F484E008952150C7
:100A4000AC01DACF80E008958091E80082FFDCCF2E
:100A5000F9CFEF92FF920F931F934FD056D008ED2E
:100A600010E0F80180818F778083808180688083A7
:100A700080818F7D808319BC1092330110922F01E9
:100A8000109231011092300180EEE82EF12CF70126
:100A900080818B7F8083F80180818160808380E00A
:100AA00060E042E34BDFE1EEF0E080818E7F808307
:100AB000E2EEF0E0808181608083808188608083C5
:100AC000F70180818E7F8083F8018081806180833F
:100AD0001F910F91FF90EF900895E8EDF0E0808175
:100AE0008F7E8083E7EDF0E080818160808384E009
:100AF00082BF81E080933201ACCFE8EDF0E08081ED
:100B00008E7F80831092E20008951092DA00109296
:100B1000E10008951F920F920FB60F9211242F93A8
:100B20003F934F935F936F937F938F939F93AF9375
:100B3000BF93EF93FF938091E10082FF0AC0809101
:100B4000E20082FF06C08091E1008B7F8093E1008C
:100B500017D28091DA0080FF1DC08091D80080FFFD
:100B600019C08091DA008E7F8093DA008091D900DD
:100B700080FF0CC080E189BD82E189BD09B400FE1F
:100B8000FDCF81E08093330125DD04C019BC1092B4
:100B9000330128DD8091E10080FF18C08091E200E0
:100BA00080FF14C08091E2008E7F8093E2008091EC
:100BB000E20080618093E2008091D800806280939F
:100BC000D80019BC85E080933301DAD18091E1002F
:100BD00084FF2FC08091E20084FF2BC080E189BD9B
:100BE00082E189BD09B400FEFDCF8091D8008F7DE0
:100BF0008093D8008091E1008F7E8093E100809106
:100C0000E2008F7E8093E2008091E2008160809319
:100C1000E20080912F01882311F084E007C08091C9
:100C2000E30087FD02C081E001C083E080933301CF
:100C3000A7D18091E10083FF22C08091E20083FF71
:100C40001EC08091E100877F8093E10082E0809365
:100C5000330110922F018091E1008E7F8093E1009B
:100C60008091E2008E7F8093E2008091E2008061BB
:100C70008093E20080E060E042E360DE81D1FF919A
:100C8000EF91BF91AF919F918F917F916F915F9104
:100C90004F913F912F910F900FBE0F901F9018957D
:100CA0001F93DF93CF93CDB7DEB7AC970FB6F89411
:100CB000DEBF0FBECDBFE4E3F1E08091F100819390
:100CC00021E0EC33F207C9F7DFDC8091E80083FF15
:100CD0003FC18091340130913501353009F48DC028
:100CE000363040F43130E1F1313070F0333009F01A
:100CF0002FC136C0383009F4FDC0393009F40CC1B9
:100D0000363009F025C19CC0803821F0823809F0C6
:100D10001FC108C090913001809131018823B1F04A
:100D2000926014C0809138018F70873008F010C134
:100D30008093E9008091EB0090E025E096958795FF
:100D40002A95E1F7982F91701092E9008091E800C0
:100D5000877F8093E8009093F1001092F100D5C056
:100D6000882319F0823009F0F3C090E08F71907001
:100D7000009721F0029709F0EBC00CC0809136017A
:100D8000813009F0E5C010923101333081F5809354
:100D900031012DC080913601882349F52091380119
:100DA0002F70822F8150863008F0D2C02093E90046
:100DB0008091EB0080FF1BC0333021F48091EB0069
:100DC000806213C08091EB0080618093EB0081E032
:100DD00090E002C0880F991F2A95E2F78093EA00FD
:100DE0001092EA008091EB0088608093EB001092F3
:100DF000E9008091E800877F8BC0882309F0A8C0B4
:100E0000109136011F778091E3008078812B8093C9
:100E1000E3008091E800877F8093E800C7DD809140
:100E2000E80080FFFCCF8091E30080688093E300BE
:100E3000112311F482E001C083E08093330188C064
:100E40008058823008F084C080913601909137013B
:100E500023E08C3D920709F033C083E08C838AE263
:100E60008B837FB7F894DE0115966EE040E050E08A
:100E700011E2E62FF0E010935700849140FF03C089
:100E800082958F706F5F8F70282F30E08A3018F056
:100E9000C901C79602C0C901C0968D939D934F5F4B
:100EA0005F4F4431510529F77FBF8091E800877F6C
:100EB0008093E800CE0103966AE270E018DC14C06B
:100EC0006091380170913901AE014F5F5F4F42DB95
:100ED000BC01009709F43CC08091E800877F8093B3
:100EE000E80089819A816DDC8091E8008B7780939E
:100EF000E8002EC0803861F58091E800877F8093FC
:100F0000E80080912F018093F1008091E8008E77B6
:100F10008093E8004BDD1CC08823D1F4909136010A
:100F20009230B0F48091E800877F8093E80090933E
:100F30002F013CDD80912F01882331F48091E30063
:100F400087FD02C081E001C084E080933301CBDBE8
:100F50008091E80083FF0AC08091E800877F80933A
:100F6000E8008091EB0080628093EB00AC960FB6B6
:100F7000F894DEBF0FBECDBFCF91DF911F910895D2
:100F800008951F9380913301882371F01091E90037
:100F90008091EC001092E9008091E80083FF01C08D
:100FA0007FDE1F701093E9001F910895F894FFCF22
:100FB00008020608040305080001070808080808D5
:080FC0002126010700000000DA
:00000001FF
